{
  "_format": "hh-sol-artifact-1",
  "contractName": "MultisigFactory",
  "sourceName": "contracts/multisigFactory.sol",
  "abi": [
    {
      "inputs": [
        {
          "internalType": "uint8",
          "name": "_quorum",
          "type": "uint8"
        },
        {
          "internalType": "address[]",
          "name": "_validSigners",
          "type": "address[]"
        }
      ],
      "name": "createMultisigWallet",
      "outputs": [
        {
          "internalType": "contract Multisig",
          "name": "newMulsig_",
          "type": "address"
        },
        {
          "internalType": "uint256",
          "name": "length_",
          "type": "uint256"
        }
      ],
      "stateMutability": "nonpayable",
      "type": "function"
    },
    {
      "inputs": [],
      "name": "getMultiSigClones",
      "outputs": [
        {
          "internalType": "contract Multisig[]",
          "name": "",
          "type": "address[]"
        }
      ],
      "stateMutability": "view",
      "type": "function"
    }
  ],
  "bytecode": "0x608060405234801561001057600080fd5b50613167806100206000396000f3fe60806040523480156200001157600080fd5b50600436106200003a5760003560e01c8063109dd5e9146200003f578063b4d3a48c1462000061575b600080fd5b6200004962000098565b60405162000058919062000330565b60405180910390f35b6200007f600480360381019062000079919062000560565b62000128565b6040516200008f929190620005f2565b60405180910390f35b606060008054806020026020016040519081016040528092919081815260200182805480156200011e57602002820191906000526020600020905b8160009054906101000a900473ffffffffffffffffffffffffffffffffffffffff1673ffffffffffffffffffffffffffffffffffffffff1681526020019060010190808311620000d3575b5050505050905090565b60008083836040516200013b90620001da565b62000148929190620006ed565b604051809103906000f08015801562000165573d6000803e3d6000fd5b5091506000829080600181540180825580915050600190039060005260206000200160009091909190916101000a81548173ffffffffffffffffffffffffffffffffffffffff021916908373ffffffffffffffffffffffffffffffffffffffff16021790555060008054905090509250929050565b612a10806200072283390190565b600081519050919050565b600082825260208201905092915050565b6000819050602082019050919050565b600073ffffffffffffffffffffffffffffffffffffffff82169050919050565b6000819050919050565b60006200025f62000259620002538462000214565b62000234565b62000214565b9050919050565b600062000273826200023e565b9050919050565b6000620002878262000266565b9050919050565b62000299816200027a565b82525050565b6000620002ad83836200028e565b60208301905092915050565b6000602082019050919050565b6000620002d382620001e8565b620002df8185620001f3565b9350620002ec8362000204565b8060005b83811015620003235781516200030788826200029f565b97506200031483620002b9565b925050600181019050620002f0565b5085935050505092915050565b600060208201905081810360008301526200034c8184620002c6565b905092915050565b6000604051905090565b600080fd5b600080fd5b600060ff82169050919050565b620003808162000368565b81146200038c57600080fd5b50565b600081359050620003a08162000375565b92915050565b600080fd5b6000601f19601f8301169050919050565b7f4e487b7100000000000000000000000000000000000000000000000000000000600052604160045260246000fd5b620003f682620003ab565b810181811067ffffffffffffffff82111715620004185762000417620003bc565b5b80604052505050565b60006200042d62000354565b90506200043b8282620003eb565b919050565b600067ffffffffffffffff8211156200045e576200045d620003bc565b5b602082029050602081019050919050565b600080fd5b6000620004818262000214565b9050919050565b620004938162000474565b81146200049f57600080fd5b50565b600081359050620004b38162000488565b92915050565b6000620004d0620004ca8462000440565b62000421565b90508083825260208201905060208402830185811115620004f657620004f56200046f565b5b835b818110156200052357806200050e8882620004a2565b845260208401935050602081019050620004f8565b5050509392505050565b600082601f830112620005455762000544620003a6565b5b813562000557848260208601620004b9565b91505092915050565b600080604083850312156200057a57620005796200035e565b5b60006200058a858286016200038f565b925050602083013567ffffffffffffffff811115620005ae57620005ad62000363565b5b620005bc858286016200052d565b9150509250929050565b620005d1816200027a565b82525050565b6000819050919050565b620005ec81620005d7565b82525050565b6000604082019050620006096000830185620005c6565b620006186020830184620005e1565b9392505050565b6200062a8162000368565b82525050565b600081519050919050565b6000819050602082019050919050565b620006568162000474565b82525050565b60006200066a83836200064b565b60208301905092915050565b6000602082019050919050565b6000620006908262000630565b6200069c8185620001f3565b9350620006a9836200063b565b8060005b83811015620006e0578151620006c488826200065c565b9750620006d18362000676565b925050600181019050620006ad565b5085935050505092915050565b60006040820190506200070460008301856200061f565b818103602083015262000718818462000683565b9050939250505056fe60806040523480156200001157600080fd5b5060405162002a1038038062002a1083398181016040528101906200003791906200063d565b60018151116200007e576040517f08c379a0000000000000000000000000000000000000000000000000000000008152600401620000759062000704565b60405180910390fd5b60018260ff1611620000c7576040517f08c379a0000000000000000000000000000000000000000000000000000000008152600401620000be9062000776565b60405180910390fd5b60005b81518110156200029357600073ffffffffffffffffffffffffffffffffffffffff1682828151811062000102576200010162000798565b5b602002602001015173ffffffffffffffffffffffffffffffffffffffff160362000163576040517f08c379a00000000000000000000000000000000000000000000000000000000081526004016200015a9062000817565b60405180910390fd5b600260008383815181106200017d576200017c62000798565b5b602002602001015173ffffffffffffffffffffffffffffffffffffffff1673ffffffffffffffffffffffffffffffffffffffff16815260200190815260200160002060009054906101000a900460ff161562000210576040517f08c379a0000000000000000000000000000000000000000000000000000000008152600401620002079062000889565b60405180910390fd5b6001600260008484815181106200022c576200022b62000798565b5b602002602001015173ffffffffffffffffffffffffffffffffffffffff1673ffffffffffffffffffffffffffffffffffffffff16815260200190815260200160002060006101000a81548160ff0219169083151502179055508080600101915050620000ca565b508051600060016101000a81548160ff021916908360ff160217905550600260003373ffffffffffffffffffffffffffffffffffffffff1673ffffffffffffffffffffffffffffffffffffffff16815260200190815260200160002060009054906101000a900460ff1662000394576001600260003373ffffffffffffffffffffffffffffffffffffffff1673ffffffffffffffffffffffffffffffffffffffff16815260200190815260200160002060006101000a81548160ff0219169083151502179055506001600060018282829054906101000a900460ff166200037b9190620008da565b92506101000a81548160ff021916908360ff1602179055505b600060019054906101000a900460ff1660ff168260ff161115620003ef576040517f08c379a0000000000000000000000000000000000000000000000000000000008152600401620003e6906200098c565b60405180910390fd5b816000806101000a81548160ff021916908360ff1602179055505050620009ae565b6000604051905090565b600080fd5b600080fd5b600060ff82169050919050565b6200043d8162000425565b81146200044957600080fd5b50565b6000815190506200045d8162000432565b92915050565b600080fd5b6000601f19601f8301169050919050565b7f4e487b7100000000000000000000000000000000000000000000000000000000600052604160045260246000fd5b620004b38262000468565b810181811067ffffffffffffffff82111715620004d557620004d462000479565b5b80604052505050565b6000620004ea62000411565b9050620004f88282620004a8565b919050565b600067ffffffffffffffff8211156200051b576200051a62000479565b5b602082029050602081019050919050565b600080fd5b600073ffffffffffffffffffffffffffffffffffffffff82169050919050565b60006200055e8262000531565b9050919050565b620005708162000551565b81146200057c57600080fd5b50565b600081519050620005908162000565565b92915050565b6000620005ad620005a784620004fd565b620004de565b90508083825260208201905060208402830185811115620005d357620005d26200052c565b5b835b81811015620006005780620005eb88826200057f565b845260208401935050602081019050620005d5565b5050509392505050565b600082601f83011262000622576200062162000463565b5b81516200063484826020860162000596565b91505092915050565b600080604083850312156200065757620006566200041b565b5b600062000667858286016200044c565b925050602083015167ffffffffffffffff8111156200068b576200068a62000420565b5b62000699858286016200060a565b9150509250929050565b600082825260208201905092915050565b7f6665772076616c6964207369676e657273000000000000000000000000000000600082015250565b6000620006ec601183620006a3565b9150620006f982620006b4565b602082019050919050565b600060208201905081810360008301526200071f81620006dd565b9050919050565b7f71756f72756d20697320746f6f20736d616c6c00000000000000000000000000600082015250565b60006200075e601383620006a3565b91506200076b8262000726565b602082019050919050565b6000602082019050818103600083015262000791816200074f565b9050919050565b7f4e487b7100000000000000000000000000000000000000000000000000000000600052603260045260246000fd5b7f7a65726f2061646472657373206e6f7420616c6c6f7765640000000000000000600082015250565b6000620007ff601883620006a3565b91506200080c82620007c7565b602082019050919050565b600060208201905081810360008301526200083281620007f0565b9050919050565b7f7369676e657220616c7265616479206578697374000000000000000000000000600082015250565b600062000871601483620006a3565b91506200087e8262000839565b602082019050919050565b60006020820190508181036000830152620008a48162000862565b9050919050565b7f4e487b7100000000000000000000000000000000000000000000000000000000600052601160045260246000fd5b6000620008e78262000425565b9150620008f48362000425565b9250828201905060ff81111562000910576200090f620008ab565b5b92915050565b7f71756f72756d2067726561746572207468616e2076616c6964207369676e657260008201527f7300000000000000000000000000000000000000000000000000000000000000602082015250565b600062000974602183620006a3565b9150620009818262000916565b604082019050919050565b60006020820190508181036000830152620009a78162000965565b9050919050565b61205280620009be6000396000f3fe608060405234801561001057600080fd5b506004361061009e5760003560e01c8063855a8e6b11610066578063855a8e6b1461014957806392eba46614610179578063cab94bfc14610195578063ccb570e3146101c5578063d40cfc51146101e15761009e565b80631703a018146100a357806317eff51b146100c15780632f430e17146100df57806339fc29d6146100fb5780633c5406871461012b575b600080fd5b6100ab6101fd565b6040516100b89190611606565b60405180910390f35b6100c961020e565b6040516100d69190611606565b60405180910390f35b6100f960048036038101906100f49190611652565b610221565b005b610115600480360381019061011091906116dd565b610730565b6040516101229190611725565b60405180910390f35b610133610786565b6040516101409190611759565b60405180910390f35b610163600480360381019061015e91906117a0565b61078c565b6040516101709190611725565b60405180910390f35b610193600480360381019061018e9190611652565b6107f4565b005b6101af60048036038101906101aa9190611652565b610b72565b6040516101bc9190611a0d565b60405180910390f35b6101df60048036038101906101da9190611a2f565b610db1565b005b6101fb60048036038101906101f69190611652565b6112a0565b005b60008054906101000a900460ff1681565b600060019054906101000a900460ff1681565b6000600360008360ff16815260200190815260200160002090506000816000015403610282576040517f08c379a000000000000000000000000000000000000000000000000000000000815260040161027990611adf565b60405180910390fd5b80600101548160060160009054906101000a900473ffffffffffffffffffffffffffffffffffffffff1673ffffffffffffffffffffffffffffffffffffffff166370a08231306040518263ffffffff1660e01b81526004016102e49190611b0e565b602060405180830381865afa158015610301573d6000803e3d6000fd5b505050506040513d601f19601f820116820180604052508101906103259190611b3e565b1015610366576040517f08c379a000000000000000000000000000000000000000000000000000000000815260040161035d90611bb7565b60405180910390fd5b8060030160149054906101000a900460ff16156103b8576040517f08c379a00000000000000000000000000000000000000000000000000000000081526004016103af90611c23565b60405180910390fd5b60008054906101000a900460ff1660ff1681600501541061040e576040517f08c379a000000000000000000000000000000000000000000000000000000000815260040161040590611c8f565b60405180910390fd5b600260003373ffffffffffffffffffffffffffffffffffffffff1673ffffffffffffffffffffffffffffffffffffffff16815260200190815260200160002060009054906101000a900460ff1661049a576040517f08c379a000000000000000000000000000000000000000000000000000000000815260040161049190611cfb565b60405180910390fd5b600460003373ffffffffffffffffffffffffffffffffffffffff1673ffffffffffffffffffffffffffffffffffffffff16815260200190815260200160002060008360ff16815260200190815260200160002060009054906101000a900460ff161561053b576040517f08c379a000000000000000000000000000000000000000000000000000000000815260040161053290611d67565b60405180910390fd5b6001600460003373ffffffffffffffffffffffffffffffffffffffff1673ffffffffffffffffffffffffffffffffffffffff16815260200190815260200160002060008460ff16815260200190815260200160002060006101000a81548160ff02191690831515021790555060018160050160008282546105bc9190611db6565b9250508190555080600701339080600181540180825580915050600190039060005260206000200160009091909190916101000a81548173ffffffffffffffffffffffffffffffffffffffff021916908373ffffffffffffffffffffffffffffffffffffffff16021790555060008054906101000a900460ff1660ff1681600501540361072c5760018160030160146101000a81548160ff0219169083151502179055508060060160009054906101000a900473ffffffffffffffffffffffffffffffffffffffff1673ffffffffffffffffffffffffffffffffffffffff1663a9059cbb8260030160009054906101000a900473ffffffffffffffffffffffffffffffffffffffff1683600101546040518363ffffffff1660e01b81526004016106e7929190611dea565b6020604051808303816000875af1158015610706573d6000803e3d6000fd5b505050506040513d601f19601f8201168201806040525081019061072a9190611e3f565b505b5050565b6000600260008373ffffffffffffffffffffffffffffffffffffffff1673ffffffffffffffffffffffffffffffffffffffff16815260200190815260200160002060009054906101000a900460ff169050919050565b60015481565b6000600460008473ffffffffffffffffffffffffffffffffffffffff1673ffffffffffffffffffffffffffffffffffffffff168152602001908152602001600020600083815260200190815260200160002060009054906101000a900460ff16905092915050565b6000600360008360ff16815260200190815260200160002090506000816000015403610855576040517f08c379a000000000000000000000000000000000000000000000000000000000815260040161084c90611adf565b60405180910390fd5b8060030160149054906101000a900460ff16156108a7576040517f08c379a000000000000000000000000000000000000000000000000000000000815260040161089e90611c23565b60405180910390fd5b60008054906101000a900460ff1660ff168160050154106108fd576040517f08c379a00000000000000000000000000000000000000000000000000000000081526004016108f490611c8f565b60405180910390fd5b600260003373ffffffffffffffffffffffffffffffffffffffff1673ffffffffffffffffffffffffffffffffffffffff16815260200190815260200160002060009054906101000a900460ff16610989576040517f08c379a000000000000000000000000000000000000000000000000000000000815260040161098090611cfb565b60405180910390fd5b600460003373ffffffffffffffffffffffffffffffffffffffff1673ffffffffffffffffffffffffffffffffffffffff16815260200190815260200160002060008360ff16815260200190815260200160002060009054906101000a900460ff1615610a2a576040517f08c379a0000000000000000000000000000000000000000000000000000000008152600401610a2190611d67565b60405180910390fd5b6001600460003373ffffffffffffffffffffffffffffffffffffffff1673ffffffffffffffffffffffffffffffffffffffff16815260200190815260200160002060008460ff16815260200190815260200160002060006101000a81548160ff0219169083151502179055506001816005016000828254610aab9190611db6565b9250508190555080600701339080600181540180825580915050600190039060005260206000200160009091909190916101000a81548173ffffffffffffffffffffffffffffffffffffffff021916908373ffffffffffffffffffffffffffffffffffffffff16021790555060008054906101000a900460ff1660ff16816005015403610b6e5760018160030160146101000a81548160ff02191690831515021790555080600101546000806101000a81548160ff021916908360ff1602179055505b5050565b610b7a611541565b600360008360ff1681526020019081526020016000206040518061014001604052908160008201548152602001600182015481526020016002820160009054906101000a900473ffffffffffffffffffffffffffffffffffffffff1673ffffffffffffffffffffffffffffffffffffffff1673ffffffffffffffffffffffffffffffffffffffff1681526020016003820160009054906101000a900473ffffffffffffffffffffffffffffffffffffffff1673ffffffffffffffffffffffffffffffffffffffff1673ffffffffffffffffffffffffffffffffffffffff1681526020016003820160149054906101000a900460ff1615151515815260200160048201548152602001600582015481526020016006820160009054906101000a900473ffffffffffffffffffffffffffffffffffffffff1673ffffffffffffffffffffffffffffffffffffffff1673ffffffffffffffffffffffffffffffffffffffff16815260200160078201805480602002602001604051908101604052809291908181526020018280548015610d6657602002820191906000526020600020905b8160009054906101000a900473ffffffffffffffffffffffffffffffffffffffff1673ffffffffffffffffffffffffffffffffffffffff1681526020019060010190808311610d1c575b505050505081526020016008820160009054906101000a900460ff166001811115610d9457610d936118bc565b5b6001811115610da657610da56118bc565b5b815250509050919050565b600073ffffffffffffffffffffffffffffffffffffffff163373ffffffffffffffffffffffffffffffffffffffff1603610e20576040517f08c379a0000000000000000000000000000000000000000000000000000000008152600401610e1790611eb8565b60405180910390fd5b600260003373ffffffffffffffffffffffffffffffffffffffff1673ffffffffffffffffffffffffffffffffffffffff16815260200190815260200160002060009054906101000a900460ff16610eac576040517f08c379a0000000000000000000000000000000000000000000000000000000008152600401610ea390611f24565b60405180910390fd5b60008311610eef576040517f08c379a0000000000000000000000000000000000000000000000000000000008152600401610ee690611f90565b60405180910390fd5b600073ffffffffffffffffffffffffffffffffffffffff168273ffffffffffffffffffffffffffffffffffffffff1603610f5e576040517f08c379a0000000000000000000000000000000000000000000000000000000008152600401610f5590611eb8565b60405180910390fd5b600073ffffffffffffffffffffffffffffffffffffffff168173ffffffffffffffffffffffffffffffffffffffff1603610fcd576040517f08c379a0000000000000000000000000000000000000000000000000000000008152600401610fc490611eb8565b60405180910390fd5b828173ffffffffffffffffffffffffffffffffffffffff166370a08231306040518263ffffffff1660e01b81526004016110079190611b0e565b602060405180830381865afa158015611024573d6000803e3d6000fd5b505050506040513d601f19601f820116820180604052508101906110489190611b3e565b1015611089576040517f08c379a000000000000000000000000000000000000000000000000000000000815260040161108090611bb7565b60405180910390fd5b6000600180546110999190611db6565b90506000600360008381526020019081526020016000209050818160000181905550848160010181905550838160030160006101000a81548173ffffffffffffffffffffffffffffffffffffffff021916908373ffffffffffffffffffffffffffffffffffffffff160217905550338160020160006101000a81548173ffffffffffffffffffffffffffffffffffffffff021916908373ffffffffffffffffffffffffffffffffffffffff160217905550428160040181905550828160060160006101000a81548173ffffffffffffffffffffffffffffffffffffffff021916908373ffffffffffffffffffffffffffffffffffffffff16021790555060018160050160008282546111ab9190611db6565b9250508190555080600701339080600181540180825580915050600190039060005260206000200160009091909190916101000a81548173ffffffffffffffffffffffffffffffffffffffff021916908373ffffffffffffffffffffffffffffffffffffffff1602179055506001600460003373ffffffffffffffffffffffffffffffffffffffff1673ffffffffffffffffffffffffffffffffffffffff168152602001908152602001600020600084815260200190815260200160002060006101000a81548160ff02191690831515021790555060018060008282546112929190611db6565b925050819055505050505050565b600073ffffffffffffffffffffffffffffffffffffffff163373ffffffffffffffffffffffffffffffffffffffff160361130f576040517f08c379a000000000000000000000000000000000000000000000000000000000815260040161130690611eb8565b60405180910390fd5b600260003373ffffffffffffffffffffffffffffffffffffffff1673ffffffffffffffffffffffffffffffffffffffff16815260200190815260200160002060009054906101000a900460ff1661139b576040517f08c379a000000000000000000000000000000000000000000000000000000000815260040161139290611ffc565b60405180910390fd5b6000600180546113ab9190611db6565b90506000600360008381526020019081526020016000209050818160000181905550338160020160006101000a81548173ffffffffffffffffffffffffffffffffffffffff021916908373ffffffffffffffffffffffffffffffffffffffff1602179055508260ff168160010181905550428160040181905550600181600501600082825461143a9190611db6565b9250508190555080600701339080600181540180825580915050600190039060005260206000200160009091909190916101000a81548173ffffffffffffffffffffffffffffffffffffffff021916908373ffffffffffffffffffffffffffffffffffffffff16021790555060018160080160006101000a81548160ff021916908360018111156114ce576114cd6118bc565b5b02179055506001600460003373ffffffffffffffffffffffffffffffffffffffff1673ffffffffffffffffffffffffffffffffffffffff168152602001908152602001600020600084815260200190815260200160002060006101000a81548160ff021916908315150217905550505050565b6040518061014001604052806000815260200160008152602001600073ffffffffffffffffffffffffffffffffffffffff168152602001600073ffffffffffffffffffffffffffffffffffffffff1681526020016000151581526020016000815260200160008152602001600073ffffffffffffffffffffffffffffffffffffffff16815260200160608152602001600060018111156115e4576115e36118bc565b5b81525090565b600060ff82169050919050565b611600816115ea565b82525050565b600060208201905061161b60008301846115f7565b92915050565b600080fd5b61162f816115ea565b811461163a57600080fd5b50565b60008135905061164c81611626565b92915050565b60006020828403121561166857611667611621565b5b60006116768482850161163d565b91505092915050565b600073ffffffffffffffffffffffffffffffffffffffff82169050919050565b60006116aa8261167f565b9050919050565b6116ba8161169f565b81146116c557600080fd5b50565b6000813590506116d7816116b1565b92915050565b6000602082840312156116f3576116f2611621565b5b6000611701848285016116c8565b91505092915050565b60008115159050919050565b61171f8161170a565b82525050565b600060208201905061173a6000830184611716565b92915050565b6000819050919050565b61175381611740565b82525050565b600060208201905061176e600083018461174a565b92915050565b61177d81611740565b811461178857600080fd5b50565b60008135905061179a81611774565b92915050565b600080604083850312156117b7576117b6611621565b5b60006117c5858286016116c8565b92505060206117d68582860161178b565b9150509250929050565b6117e981611740565b82525050565b6117f88161169f565b82525050565b6118078161170a565b82525050565b600081519050919050565b600082825260208201905092915050565b6000819050602082019050919050565b600061184583836117ef565b60208301905092915050565b6000602082019050919050565b60006118698261180d565b6118738185611818565b935061187e83611829565b8060005b838110156118af5781516118968882611839565b97506118a183611851565b925050600181019050611882565b5085935050505092915050565b7f4e487b7100000000000000000000000000000000000000000000000000000000600052602160045260246000fd5b600281106118fc576118fb6118bc565b5b50565b600081905061190d826118eb565b919050565b600061191d826118ff565b9050919050565b61192d81611912565b82525050565b60006101408301600083015161194c60008601826117e0565b50602083015161195f60208601826117e0565b50604083015161197260408601826117ef565b50606083015161198560608601826117ef565b50608083015161199860808601826117fe565b5060a08301516119ab60a08601826117e0565b5060c08301516119be60c08601826117e0565b5060e08301516119d160e08601826117ef565b506101008301518482036101008601526119eb828261185e565b915050610120830151611a02610120860182611924565b508091505092915050565b60006020820190508181036000830152611a278184611933565b905092915050565b600080600060608486031215611a4857611a47611621565b5b6000611a568682870161178b565b9350506020611a67868287016116c8565b9250506040611a78868287016116c8565b9150509250925092565b600082825260208201905092915050565b7f696e76616c696420747820696400000000000000000000000000000000000000600082015250565b6000611ac9600d83611a82565b9150611ad482611a93565b602082019050919050565b60006020820190508181036000830152611af881611abc565b9050919050565b611b088161169f565b82525050565b6000602082019050611b236000830184611aff565b92915050565b600081519050611b3881611774565b92915050565b600060208284031215611b5457611b53611621565b5b6000611b6284828501611b29565b91505092915050565b7f696e73756666696369656e742066756e64730000000000000000000000000000600082015250565b6000611ba1601283611a82565b9150611bac82611b6b565b602082019050919050565b60006020820190508181036000830152611bd081611b94565b9050919050565b7f7472616e73616374696f6e20616c726561647920636f6d706c65746564000000600082015250565b6000611c0d601d83611a82565b9150611c1882611bd7565b602082019050919050565b60006020820190508181036000830152611c3c81611c00565b9050919050565b7f617070726f76616c7320616c7265616479207265616368656400000000000000600082015250565b6000611c79601983611a82565b9150611c8482611c43565b602082019050919050565b60006020820190508181036000830152611ca881611c6c565b9050919050565b7f6e6f7420612076616c6964207369676e65720000000000000000000000000000600082015250565b6000611ce5601283611a82565b9150611cf082611caf565b602082019050919050565b60006020820190508181036000830152611d1481611cd8565b9050919050565b7f63616e2774207369676e20747769636500000000000000000000000000000000600082015250565b6000611d51601083611a82565b9150611d5c82611d1b565b602082019050919050565b60006020820190508181036000830152611d8081611d44565b9050919050565b7f4e487b7100000000000000000000000000000000000000000000000000000000600052601160045260246000fd5b6000611dc182611740565b9150611dcc83611740565b9250828201905080821115611de457611de3611d87565b5b92915050565b6000604082019050611dff6000830185611aff565b611e0c602083018461174a565b9392505050565b611e1c8161170a565b8114611e2757600080fd5b50565b600081519050611e3981611e13565b92915050565b600060208284031215611e5557611e54611621565b5b6000611e6384828501611e2a565b91505092915050565b7f61646472657373207a65726f20666f756e640000000000000000000000000000600082015250565b6000611ea2601283611a82565b9150611ead82611e6c565b602082019050919050565b60006020820190508181036000830152611ed181611e95565b9050919050565b7f696e76616c6964207369676e6572000000000000000000000000000000000000600082015250565b6000611f0e600e83611a82565b9150611f1982611ed8565b602082019050919050565b60006020820190508181036000830152611f3d81611f01565b9050919050565b7f63616e27742073656e64207a65726f20616d6f756e7400000000000000000000600082015250565b6000611f7a601683611a82565b9150611f8582611f44565b602082019050919050565b60006020820190508181036000830152611fa981611f6d565b9050919050565b7f496e76616c6964207369676e6572000000000000000000000000000000000000600082015250565b6000611fe6600e83611a82565b9150611ff182611fb0565b602082019050919050565b6000602082019050818103600083015261201581611fd9565b905091905056fea2646970667358221220a03e5c3fa326619bbfa30eb4b16a4e254f6a2236a97fe4f4d5c2bd986958783e64736f6c63430008180033a2646970667358221220ee0a9b5520b79b2617f4db84f607738e40bc5fd528742a117e0dc601516e59c364736f6c63430008180033",
  "linkReferences": {},
  "deployedLinkReferences": {}
}